:020000020000FC
:0200000031C10C
:10020000F89407B1007C07B908B10F6308B90AB1C7
:100210000F730AB90BB1006C0BB904B10F6204B9CA
:1002200001E50CBD2A982998289808951F930F93EB
:1002300016B109B11F73007C012B602E0F911F9125
:100240000895FF92FFB68EBC07D07EBC05D02A9AD7
:100250002A98FFBEFF9008950F930DB507FBEEF7A8
:100260000F91089508E00EBF0FEF0DBF0E9400012F
:0E0270000E941601762C862C0E942101F9CFE7
:00000001FF
