:020000020000FC
:0200000075C1C8
:040004000C94D9017E
:10020000F89407B1007C07B908B10F6308B90AB1C7
:100210000F730AB90BB1006C0BB904B10F6204B9CA
:1002200001E50CBD2A982998289808951F930F93EB
:1002300016B109B11F73007C012B602E0F911F9125
:100240000895FF92FFB68EBC07D07EBC05D02A9AD7
:100250002A98FFBEFF9008950F930DB507FBEEF7A8
:100260000F910895FF92FFB61F93182F83701C7093
:1002700012951695812B1F91FFBEFF900895FF9256
:10028000FFB60F93082F80E4003039F080E202308F
:1002900021F082E0013009F081E00F91FFBEFF9074
:1002A00008950F93082F882700FB81F9009501FB23
:1002B00080F90F9108950F93082F882701FB80F98B
:1002C000009500FB81F90F91089580958370089542
:1002D0000F93D5DF082F862FC5DF80230F91089558
:1002E000EADFF6DF0895DDDFF3DF089518E01EBFD3
:1002F0000FEF0DBF0E94000188247724559A529871
:100300005A98E898109169001E7F12601093690056
:10031000E89A11271093000113E0109301010BE0FC
:10032000009385000CED0093840003E000938100AE
:100330003327309302011093030178940E94160131
:10034000162D13701093010130910201303041F4E9
:100350008091000187DF782E21E02093020120C0E8
:10036000313089F4809100017DDF782E8091010188
:1003700086DF782A10910301112300E009F002E0E2
:10038000009302010DC0323059F400E000930301E4
:100390001AD08091000166DF782E01E000930201FF
:1003A00031FB87F830FB86F80E94210116D021D05E
:1003B000C5CFFF92FFB60F930FEF009303010F918C
:1003C000FFBEFF9018950F930E941601062D007F27
:1003D0000295009300010F9108950F93B09BFECFFB
:1003E000B09A0BE0009385000CED009384000F9110
:0803F00008955D985D9A0895DF
:00000001FF
