:020000020000FC
:02000000ADC28F
:040004000C94DC017B
:0602000000065B4F6600E2
:1002A000F89407B1007C07B908B10F6308B90AB127
:1002B0000F730AB90BB1006C0BB904B10F6204B92A
:1002C00001E50CBD2A982998289808951F930F934B
:1002D00016B109B11F73007C012B602E0F911F9185
:1002E0000895FF92FFB68EBC07D07EBC05D02A9A37
:1002F0002A98FFBEFF9008950F930DB507FBEEF708
:100300000F910895FF92FFB61F93182F83701C70F2
:1003100012951695812B1F91FFBEFF900895FF92B5
:10032000FFB60F93082F80E4003039F080E20230EE
:1003300021F082E0013009F081E00F91FFBEFF90D3
:1003400008950F93082F882700FB81F9009501FB82
:1003500080F90F9108950F93082F882701FB80F9EA
:10036000009500FB81F90F910895809583700895A1
:100370000F93D5DF082F862FC5DF80230F910895B7
:10038000EADFF6DF0895FF92FFB60F931F9319E19E
:10039000B89BFECFB89A04E60093B2000AD0903022
:1003A00011F01A95A9F791E00F911F91FFBEFF90F0
:1003B00008955D985D9A0895FF92FFB60F930FEF31
:1003C000009303010F91FFBEFF90189505090909DD
:1003D0001909010305090909090909092909090276
:1003E0000C09090305090A0606050909093909095D
:1003F0000305030605090B060605090A360C09095B
:100400000909010B0C0A0606060D090A0606050372
:100410000C09030509090A05090908020625090945
:100420000A06060C09090A0C090903460509090A06
:10043000060C030509021605090909090903060640
:100440000C03050306050A0C030606060501030551
:1004500003060606053A0606060C090306060C0204
:1004600006060606060C1206060502060607050A1B
:100470000E0C0902060606060C090A060C0A0606F8
:1004800006060C09090909080206360C09090908BB
:10049000190306060C0809090909010306060C09D7
:1004A00009030D0903060606052109090B0746067F
:1004B000060C09090304090102060606060C0909CF
:1004C00009020606060D09090A0C030606060606B9
:1004D00006050909090A060C0A0509090903061691
:1004E00006060606060C090909030409090A05237C
:1004F000050A060606060606040909390908020562
:100500000103060606050A0E06060606060D09097B
:1005100009090A0606060606060605090A0606066B
:10052000061D09090909090A060606062C0A060518
:10053000090A060604090909090909090A0C0A0633
:1005400005090A060D090A06040909092909090904
:1005500009090908080909280909090A08E00EBF5C
:100560000FEF0DBF0E94500188247724559A5298AE
:100570005A98E898009169000E7F02600093690024
:10058000E89A0027009300010093050100930601FB
:100590000093030103E00093010104E100930401CF
:1005A00004E60093B20007E00093B10088247724AA
:1005B00078940E946601062D03700093010110914A
:1005C0000201103049F4809100019CDE782E01E098
:1005D000009302015AD04BC0113089F48091000180
:1005E00091DE782E809101019ADE782A2091030114
:1005F000222300E009F002E00093020138C012302B
:1006000041F500E000930301409101018091040154
:10061000609105013AD060930501809304015BD09D
:10062000682F607F6295609306018F708093000150
:100630006BD08091000166DE782E809100017CD025
:10064000882319F001E00093020103E00093020106
:100650000EC07724809100016FD0882321F002E042
:100660000093020104C000E00093020100C001FBFE
:1006700087F810FB86F860910601809100015CD03C
:1006800065D081DE0E94710194CF0F931F93082DD6
:10069000007F802E182F8091000134DE082F80917A
:1006A00001013DDE8023882379F4812F403011F44D
:1006B00083950EC0413011F463950AC0423011F4A5
:1006C0006A9506C08A9504C0082D0F60802E812F80
:1006D0001F910F910895FF92FFB6FF93EF930F9232
:1006E0001F920F93ECECF3E004E1809F060E0027CD
:1006F000101EE00DF11D84910F911F900F90EF914E
:10070000FF91FFBEFF900895FF93EF930F931F9308
:10071000E0E0F2E000910601002349F0E00F1491BF
:10072000712E0E9471012FDE2EDE2DDE2CDEFF9158
:10073000EF910F911F910895662321F4893021F0E4
:10074000863011F080E001C08FEF08950F93082DDF
:10075000882319F400610F7D02C000620F7E802E95
:040760000F91089558
:00000001FF
