:020000020000FC
:0200000031C10C
:10020000F89407B1007C07B908B10F6308B90AB1C7
:100210000F730AB90BB1006C0BB904B10F6204B9CA
:1002200001E50CBD2A982998289808951F930F93EB
:1002300016B109B11F73007C012B602E0F911F9125
:100240000895FF92FFB68EBC07D07EBC05D02A9AD7
:100250002A98FFBEFF9008950F930DB507FBEEF7A8
:100260000F9108950FEF0DBF08E00EBF0E9400012F
:100270000E941601862C062D03700093000167FA78
:1002800076F866FA75F865FA71F864FA70F80E9403
:100290002101009100017724202F01FB10F9212377
:1002A00020FB70F8202F01FB10F9109520952123D9
:1002B00020FB76F8202F01FB10F92095212320FB4D
:1002C00075F8202F01FB10F91095212320FB71F800
:0602D0000E942101CDCFC8
:00000001FF
