:020000020000FC
:0200000050C1ED
:10020000F89407B1007C07B908B10F6308B90AB1C7
:100210000F730AB90BB1006C0BB904B10F6204B9CA
:1002200001E50CBD2A982998289808951F930F93EB
:1002300016B109B11F73007C012B602E0F911F9125
:100240000895FF92FFB68EBC07D07EBC05D02A9AD7
:100250002A98FFBEFF9008950F930DB507FBEEF7A8
:100260000F910895FF92FFB60F93082F83700C70C3
:1002700002950695802B0F91FFBEFF900895FF9287
:10028000FFB60F93082F80E4003039F080E202308F
:1002900021F082E0013009F081E00F91FFBEFF9074
:1002A000089518E01EBF0FEF0DBF0E9400018824C3
:1002B000772411271093000113E01093010110E03F
:1002C000109302010E941601162D13701093010164
:1002D000162D107F12951093000180910101CFDF40
:1002E000782E0E94210180910001BCDF782E0E94AF
:1002F0002101162D16951695137010930201809109
:100300000101609102011DD08093010131D045D0DF
:1003100053D0D8CF0F93082F882700FB81F9009581
:1003200001FB80F90F9108950F93082F882701FB97
:1003300080F9009500FB81F90F91089580958370F5
:10034000089561FB2EF060FB0EF009C0EDDF07C0E1
:1003500060FB0EF402C0DEDF02C0F0DF00C00895D3
:100360000F938DDF082F862F7DDF80230F91089557
:100370006091000180910101082DF2DF882319F0BE
:1003800000620F7E02C000610F7D802E0895CCDFD9
:10039000E7DF0895BFDFE4DF0895609100018091F9
:1003A0000101082DF7DF882319F008600B7F02C0D8
:1003B0000460077F802E0895609100018091010103
:1003C000082DE5DF882319F002600E7F02C001606E
:0603D0000D7F802E089550
:00000001FF
